{
  "contractName": "TrustManagement",
  "abi": [
    {
      "constant": false,
      "inputs": [
        {
          "internalType": "address",
          "name": "_acno",
          "type": "address"
        }
      ],
      "name": "configureVEH",
      "outputs": [],
      "payable": false,
      "stateMutability": "nonpayable",
      "type": "function"
    },
    {
      "constant": false,
      "inputs": [
        {
          "internalType": "address",
          "name": "session",
          "type": "address"
        },
        {
          "internalType": "address",
          "name": "suspected_vehicle",
          "type": "address"
        }
      ],
      "name": "reportMisbehaviour",
      "outputs": [],
      "payable": false,
      "stateMutability": "nonpayable",
      "type": "function"
    },
    {
      "constant": false,
      "inputs": [],
      "name": "TACheck",
      "outputs": [],
      "payable": false,
      "stateMutability": "nonpayable",
      "type": "function"
    },
    {
      "constant": false,
      "inputs": [],
      "name": "claimReward",
      "outputs": [],
      "payable": false,
      "stateMutability": "nonpayable",
      "type": "function"
    },
    {
      "constant": false,
      "inputs": [
        {
          "internalType": "address payable",
          "name": "acno",
          "type": "address"
        }
      ],
      "name": "releasePayment",
      "outputs": [],
      "payable": true,
      "stateMutability": "payable",
      "type": "function"
    },
    {
      "constant": true,
      "inputs": [],
      "name": "RevokedVehicles",
      "outputs": [
        {
          "internalType": "address[]",
          "name": "",
          "type": "address[]"
        }
      ],
      "payable": false,
      "stateMutability": "view",
      "type": "function"
    },
    {
      "constant": true,
      "inputs": [
        {
          "internalType": "address",
          "name": "session",
          "type": "address"
        }
      ],
      "name": "dummyCheck",
      "outputs": [
        {
          "internalType": "uint256",
          "name": "",
          "type": "uint256"
        },
        {
          "internalType": "uint256",
          "name": "",
          "type": "uint256"
        },
        {
          "internalType": "uint256",
          "name": "",
          "type": "uint256"
        }
      ],
      "payable": false,
      "stateMutability": "view",
      "type": "function"
    },
    {
      "constant": true,
      "inputs": [],
      "name": "checkmyTVC",
      "outputs": [
        {
          "internalType": "int256",
          "name": "",
          "type": "int256"
        },
        {
          "internalType": "uint256",
          "name": "",
          "type": "uint256"
        }
      ],
      "payable": false,
      "stateMutability": "view",
      "type": "function"
    },
    {
      "constant": true,
      "inputs": [],
      "name": "CheckmyClaims",
      "outputs": [
        {
          "internalType": "string",
          "name": "",
          "type": "string"
        }
      ],
      "payable": false,
      "stateMutability": "view",
      "type": "function"
    },
    {
      "constant": true,
      "inputs": [],
      "name": "MoreInfoOnClaims",
      "outputs": [
        {
          "internalType": "string",
          "name": "",
          "type": "string"
        },
        {
          "internalType": "address",
          "name": "",
          "type": "address"
        },
        {
          "internalType": "address",
          "name": "",
          "type": "address"
        }
      ],
      "payable": false,
      "stateMutability": "view",
      "type": "function"
    },
    {
      "constant": true,
      "inputs": [
        {
          "internalType": "address",
          "name": "session",
          "type": "address"
        },
        {
          "internalType": "address",
          "name": "suspected_vehicle",
          "type": "address"
        }
      ],
      "name": "Reevaluation",
      "outputs": [
        {
          "internalType": "uint256",
          "name": "",
          "type": "uint256"
        },
        {
          "internalType": "uint256",
          "name": "",
          "type": "uint256"
        }
      ],
      "payable": false,
      "stateMutability": "view",
      "type": "function"
    },
    {
      "constant": true,
      "inputs": [],
      "name": "checkengeth",
      "outputs": [
        {
          "internalType": "uint256",
          "name": "",
          "type": "uint256"
        }
      ],
      "payable": false,
      "stateMutability": "view",
      "type": "function"
    },
    {
      "constant": true,
      "inputs": [
        {
          "internalType": "address",
          "name": "session",
          "type": "address"
        },
        {
          "internalType": "address",
          "name": "suspected_vehicle",
          "type": "address"
        }
      ],
      "name": "checkScore",
      "outputs": [
        {
          "internalType": "uint256",
          "name": "",
          "type": "uint256"
        }
      ],
      "payable": false,
      "stateMutability": "view",
      "type": "function"
    },
    {
      "constant": true,
      "inputs": [],
      "name": "TAC",
      "outputs": [
        {
          "internalType": "address",
          "name": "",
          "type": "address"
        }
      ],
      "payable": false,
      "stateMutability": "view",
      "type": "function"
    }
  ],
  "bytecode": "0x6080604052336000806101000a81548173ffffffffffffffffffffffffffffffffffffffff021916908373ffffffffffffffffffffffffffffffffffffffff16021790555060006001556000600255600060035534801561005f57600080fd5b50612d3f8061006f6000396000f3fe6080604052600436106100dd5760003560e01c8063915a48a51161007f578063b922f3c311610059578063b922f3c31461043b578063e2dee1cd14610466578063e451db07146104d7578063e73c808c146105cd576100dd565b8063915a48a51461034e578063a2d703f71461039f578063b88a802f14610424576100dd565b806351246f17116100bb57806351246f1714610182578063747ddb4e146101ee57806377e2f10b1461027e57806384f68de7146102c2576100dd565b80630e77907e146100e2578063103d60ed146100f957806319f685231461012b575b600080fd5b3480156100ee57600080fd5b506100f7610640565b005b34801561010557600080fd5b5061010e610cbf565b604051808381526020018281526020019250505060405180910390f35b34801561013757600080fd5b50610140610d50565b604051808273ffffffffffffffffffffffffffffffffffffffff1673ffffffffffffffffffffffffffffffffffffffff16815260200191505060405180910390f35b34801561018e57600080fd5b50610197610d90565b6040518080602001828103825283818151815260200191508051906020019060200280838360005b838110156101da5780820151818401526020810190506101bf565b505050509050019250505060405180910390f35b3480156101fa57600080fd5b50610203610e1e565b6040518080602001828103825283818151815260200191508051906020019080838360005b83811015610243578082015181840152602081019050610228565b50505050905090810190601f1680156102705780820380516001836020036101000a031916815260200191505b509250505060405180910390f35b6102c06004803603602081101561029457600080fd5b81019080803573ffffffffffffffffffffffffffffffffffffffff1690602001909291905050506110cd565b005b3480156102ce57600080fd5b50610331600480360360408110156102e557600080fd5b81019080803573ffffffffffffffffffffffffffffffffffffffff169060200190929190803573ffffffffffffffffffffffffffffffffffffffff169060200190929190505050611282565b604051808381526020018281526020019250505060405180910390f35b34801561035a57600080fd5b5061039d6004803603602081101561037157600080fd5b81019080803573ffffffffffffffffffffffffffffffffffffffff16906020019092919050505061135d565b005b3480156103ab57600080fd5b5061040e600480360360408110156103c257600080fd5b81019080803573ffffffffffffffffffffffffffffffffffffffff169060200190929190803573ffffffffffffffffffffffffffffffffffffffff169060200190929190505050611660565b6040518082815260200191505060405180910390f35b34801561043057600080fd5b506104396116ed565b005b34801561044757600080fd5b50610450611dd7565b6040518082815260200191505060405180910390f35b34801561047257600080fd5b506104d56004803603604081101561048957600080fd5b81019080803573ffffffffffffffffffffffffffffffffffffffff169060200190929190803573ffffffffffffffffffffffffffffffffffffffff169060200190929190505050611de4565b005b3480156104e357600080fd5b506104ec612aeb565b60405180806020018473ffffffffffffffffffffffffffffffffffffffff1673ffffffffffffffffffffffffffffffffffffffff1681526020018373ffffffffffffffffffffffffffffffffffffffff1673ffffffffffffffffffffffffffffffffffffffff168152602001828103825285818151815260200191508051906020019080838360005b83811015610590578082015181840152602081019050610575565b50505050905090810190601f1680156105bd5780820380516001836020036101000a031916815260200191505b5094505050505060405180910390f35b3480156105d957600080fd5b5061061c600480360360208110156105f057600080fd5b81019080803573ffffffffffffffffffffffffffffffffffffffff169060200190929190505050612c25565b60405180848152602001838152602001828152602001935050505060405180910390f35b60008090506000809054906101000a900473ffffffffffffffffffffffffffffffffffffffff1673ffffffffffffffffffffffffffffffffffffffff163373ffffffffffffffffffffffffffffffffffffffff16141561069f57600190505b60011515811515146106fc576040517f08c379a0000000000000000000000000000000000000000000000000000000008152600401808060200182810382526021815260200180612ca36021913960400191505060405180910390fd5b6000809050600780549050600354101561071557600190505b600115158115151461078f576040517f08c379a00000000000000000000000000000000000000000000000000000000081526004018080602001828103825260158152602001807f4e6f20737573706973696f6e207265706f72746564000000000000000000000081525060200191505060405180910390fd5b60006007600354815481106107a057fe5b9060005260206000200160009054906101000a900473ffffffffffffffffffffffffffffffffffffffff1690506000600190505b600d60008373ffffffffffffffffffffffffffffffffffffffff1673ffffffffffffffffffffffffffffffffffffffff168152602001908152602001600020600001548111610cad576000600a60008473ffffffffffffffffffffffffffffffffffffffff1673ffffffffffffffffffffffffffffffffffffffff168152602001908152602001600020600083815260200190815260200160002060010160009054906101000a900473ffffffffffffffffffffffffffffffffffffffff1690506001600254016002819055506002600d60008573ffffffffffffffffffffffffffffffffffffffff1673ffffffffffffffffffffffffffffffffffffffff16815260200190815260200160002060000154816108ed57fe5b04600960008573ffffffffffffffffffffffffffffffffffffffff1673ffffffffffffffffffffffffffffffffffffffff16815260200190815260200160002060008373ffffffffffffffffffffffffffffffffffffffff1673ffffffffffffffffffffffffffffffffffffffff168152602001908152602001600020600001541115610c9f5760018054016001819055506001600b60008373ffffffffffffffffffffffffffffffffffffffff1673ffffffffffffffffffffffffffffffffffffffff1681526020019081526020016000206000015403600b60008373ffffffffffffffffffffffffffffffffffffffff1673ffffffffffffffffffffffffffffffffffffffff16815260200190815260200160002060000181905550603c600b60008373ffffffffffffffffffffffffffffffffffffffff1673ffffffffffffffffffffffffffffffffffffffff1681526020019081526020016000206005015401600b60008373ffffffffffffffffffffffffffffffffffffffff1673ffffffffffffffffffffffffffffffffffffffff168152602001908152602001600020600501819055506000600b60008373ffffffffffffffffffffffffffffffffffffffff1673ffffffffffffffffffffffffffffffffffffffff16815260200190815260200160002060000154128015610b3c575060001515600b60008373ffffffffffffffffffffffffffffffffffffffff1673ffffffffffffffffffffffffffffffffffffffff16815260200190815260200160002060020160149054906101000a900460ff161515145b15610c0657600160068290806001815401808255809150509060018203906000526020600020016000909192909190916101000a81548173ffffffffffffffffffffffffffffffffffffffff021916908373ffffffffffffffffffffffffffffffffffffffff16021790555050506001600b60008373ffffffffffffffffffffffffffffffffffffffff1673ffffffffffffffffffffffffffffffffffffffff16815260200190815260200160002060020160146101000a81548160ff0219169083151502179055505b6001600960008573ffffffffffffffffffffffffffffffffffffffff1673ffffffffffffffffffffffffffffffffffffffff16815260200190815260200160002060008373ffffffffffffffffffffffffffffffffffffffff1673ffffffffffffffffffffffffffffffffffffffff16815260200190815260200160002060010160006101000a81548160ff0219169083151502179055505b5080806001019150506107d4565b50600160035401600381905550505050565b600080600b60003373ffffffffffffffffffffffffffffffffffffffff1673ffffffffffffffffffffffffffffffffffffffff16815260200190815260200160002060000154600b60003373ffffffffffffffffffffffffffffffffffffffff1673ffffffffffffffffffffffffffffffffffffffff16815260200190815260200160002060010154915091509091565b60006007600081548110610d6057fe5b9060005260206000200160009054906101000a900473ffffffffffffffffffffffffffffffffffffffff16905090565b60606006805480602002602001604051908101604052809291908181526020018280548015610e1457602002820191906000526020600020905b8160009054906101000a900473ffffffffffffffffffffffffffffffffffffffff1673ffffffffffffffffffffffffffffffffffffffff1681526020019060010190808311610dca575b5050505050905090565b6060600b60003373ffffffffffffffffffffffffffffffffffffffff1673ffffffffffffffffffffffffffffffffffffffff16815260200190815260200160002060040154600b60003373ffffffffffffffffffffffffffffffffffffffff1673ffffffffffffffffffffffffffffffffffffffff168152602001908152602001600020600301541415610ee9576040518060400160405280601681526020017f4e6f206d6f72652070656e64696e6720436c61696d730000000000000000000081525090506110ca565b6001151560096000600e6000600b60003373ffffffffffffffffffffffffffffffffffffffff1673ffffffffffffffffffffffffffffffffffffffff16815260200190815260200160002060030154815260200190815260200160002060000160009054906101000a900473ffffffffffffffffffffffffffffffffffffffff1673ffffffffffffffffffffffffffffffffffffffff1673ffffffffffffffffffffffffffffffffffffffff1681526020019081526020016000206000600e6000600b60003373ffffffffffffffffffffffffffffffffffffffff1673ffffffffffffffffffffffffffffffffffffffff16815260200190815260200160002060030154815260200190815260200160002060010160009054906101000a900473ffffffffffffffffffffffffffffffffffffffff1673ffffffffffffffffffffffffffffffffffffffff1673ffffffffffffffffffffffffffffffffffffffff16815260200190815260200160002060010160009054906101000a900460ff161515146110ae576040518060400160405280601c81526020017f436c61696d206e6f74207965742076657269666965642062792054410000000081525090506110ca565b604051806080016040528060478152602001612cc46047913990505b90565b60008090506000809054906101000a900473ffffffffffffffffffffffffffffffffffffffff1673ffffffffffffffffffffffffffffffffffffffff163373ffffffffffffffffffffffffffffffffffffffff16141561112c57600190505b6001151581151514611189576040517f08c379a0000000000000000000000000000000000000000000000000000000008152600401808060200182810382526021815260200180612ca36021913960400191505060405180910390fd5b6000600b60008473ffffffffffffffffffffffffffffffffffffffff1673ffffffffffffffffffffffffffffffffffffffff16815260200190815260200160002060010154905060006002820290508034146111e157fe5b8034146111ed57600080fd5b6000600b60008673ffffffffffffffffffffffffffffffffffffffff1673ffffffffffffffffffffffffffffffffffffffff168152602001908152602001600020600101819055508373ffffffffffffffffffffffffffffffffffffffff166108fc349081150290604051600060405180830381858888f1935050505015801561127b573d6000803e3d6000fd5b5050505050565b600080600960008573ffffffffffffffffffffffffffffffffffffffff1673ffffffffffffffffffffffffffffffffffffffff16815260200190815260200160002060008473ffffffffffffffffffffffffffffffffffffffff1673ffffffffffffffffffffffffffffffffffffffff168152602001908152602001600020600001546002600d60008773ffffffffffffffffffffffffffffffffffffffff1673ffffffffffffffffffffffffffffffffffffffff168152602001908152602001600020600001548161135157fe5b04915091509250929050565b60008090506000809054906101000a900473ffffffffffffffffffffffffffffffffffffffff1673ffffffffffffffffffffffffffffffffffffffff163373ffffffffffffffffffffffffffffffffffffffff1614156113bc57600190505b6001151581151514611419576040517f08c379a0000000000000000000000000000000000000000000000000000000008152600401808060200182810382526021815260200180612ca36021913960400191505060405180910390fd5b81600b60008473ffffffffffffffffffffffffffffffffffffffff1673ffffffffffffffffffffffffffffffffffffffff16815260200190815260200160002060020160006101000a81548173ffffffffffffffffffffffffffffffffffffffff021916908373ffffffffffffffffffffffffffffffffffffffff160217905550600a600b60008473ffffffffffffffffffffffffffffffffffffffff1673ffffffffffffffffffffffffffffffffffffffff168152602001908152602001600020600001819055506064600b60008473ffffffffffffffffffffffffffffffffffffffff1673ffffffffffffffffffffffffffffffffffffffff168152602001908152602001600020600101819055506000600b60008473ffffffffffffffffffffffffffffffffffffffff1673ffffffffffffffffffffffffffffffffffffffff16815260200190815260200160002060020160146101000a81548160ff0219169083151502179055506000600b60008473ffffffffffffffffffffffffffffffffffffffff1673ffffffffffffffffffffffffffffffffffffffff168152602001908152602001600020600401819055506000600b60008473ffffffffffffffffffffffffffffffffffffffff1673ffffffffffffffffffffffffffffffffffffffff1681526020019081526020016000206003018190555042600b60008473ffffffffffffffffffffffffffffffffffffffff1673ffffffffffffffffffffffffffffffffffffffff168152602001908152602001600020600501819055505050565b60006001600960008573ffffffffffffffffffffffffffffffffffffffff1673ffffffffffffffffffffffffffffffffffffffff16815260200190815260200160002060008473ffffffffffffffffffffffffffffffffffffffff1673ffffffffffffffffffffffffffffffffffffffff1681526020019081526020016000206000015401905092915050565b6000600e6000600b60003373ffffffffffffffffffffffffffffffffffffffff1673ffffffffffffffffffffffffffffffffffffffff16815260200190815260200160002060030154815260200190815260200160002060000160009054906101000a900473ffffffffffffffffffffffffffffffffffffffff1690506000600e6000600b60003373ffffffffffffffffffffffffffffffffffffffff1673ffffffffffffffffffffffffffffffffffffffff16815260200190815260200160002060030154815260200190815260200160002060010160009054906101000a900473ffffffffffffffffffffffffffffffffffffffff16905060001515600860003373ffffffffffffffffffffffffffffffffffffffff1673ffffffffffffffffffffffffffffffffffffffff16815260200190815260200160002060008473ffffffffffffffffffffffffffffffffffffffff1673ffffffffffffffffffffffffffffffffffffffff16815260200190815260200160002060008373ffffffffffffffffffffffffffffffffffffffff1673ffffffffffffffffffffffffffffffffffffffff16815260200190815260200160002060000160019054906101000a900460ff1615151415611dce5760011515600960008473ffffffffffffffffffffffffffffffffffffffff1673ffffffffffffffffffffffffffffffffffffffff16815260200190815260200160002060008373ffffffffffffffffffffffffffffffffffffffff1673ffffffffffffffffffffffffffffffffffffffff16815260200190815260200160002060010160009054906101000a900460ff1615151415611dc957600860003373ffffffffffffffffffffffffffffffffffffffff1673ffffffffffffffffffffffffffffffffffffffff16815260200190815260200160002060008373ffffffffffffffffffffffffffffffffffffffff1673ffffffffffffffffffffffffffffffffffffffff16815260200190815260200160002060008273ffffffffffffffffffffffffffffffffffffffff1673ffffffffffffffffffffffffffffffffffffffff16815260200190815260200160002060000160009054906101000a900460ff161515600960008473ffffffffffffffffffffffffffffffffffffffff1673ffffffffffffffffffffffffffffffffffffffff16815260200190815260200160002060008373ffffffffffffffffffffffffffffffffffffffff1673ffffffffffffffffffffffffffffffffffffffff16815260200190815260200160002060010160009054906101000a900460ff1615151415611dc8576005600b60003373ffffffffffffffffffffffffffffffffffffffff1673ffffffffffffffffffffffffffffffffffffffff1681526020019081526020016000206001015401600b60003373ffffffffffffffffffffffffffffffffffffffff1673ffffffffffffffffffffffffffffffffffffffff168152602001908152602001600020600101819055506001600b60003373ffffffffffffffffffffffffffffffffffffffff1673ffffffffffffffffffffffffffffffffffffffff1681526020019081526020016000206003015401600b60003373ffffffffffffffffffffffffffffffffffffffff1673ffffffffffffffffffffffffffffffffffffffff168152602001908152602001600020600301819055503373ffffffffffffffffffffffffffffffffffffffff16600d60008473ffffffffffffffffffffffffffffffffffffffff1673ffffffffffffffffffffffffffffffffffffffff16815260200190815260200160002060020160009054906101000a900473ffffffffffffffffffffffffffffffffffffffff1673ffffffffffffffffffffffffffffffffffffffff161415611cf2576002600b60003373ffffffffffffffffffffffffffffffffffffffff1673ffffffffffffffffffffffffffffffffffffffff1681526020019081526020016000206001015401600b60003373ffffffffffffffffffffffffffffffffffffffff1673ffffffffffffffffffffffffffffffffffffffff168152602001908152602001600020600101819055505b6001600860003373ffffffffffffffffffffffffffffffffffffffff1673ffffffffffffffffffffffffffffffffffffffff16815260200190815260200160002060008473ffffffffffffffffffffffffffffffffffffffff1673ffffffffffffffffffffffffffffffffffffffff16815260200190815260200160002060008373ffffffffffffffffffffffffffffffffffffffff1673ffffffffffffffffffffffffffffffffffffffff16815260200190815260200160002060000160016101000a81548160ff0219169083151502179055505b5b611dd3565b600080fd5b5050565b6000600780549050905090565b3360008090508173ffffffffffffffffffffffffffffffffffffffff16600b60008473ffffffffffffffffffffffffffffffffffffffff1673ffffffffffffffffffffffffffffffffffffffff16815260200190815260200160002060020160009054906101000a900473ffffffffffffffffffffffffffffffffffffffff1673ffffffffffffffffffffffffffffffffffffffff161415611e8557600190505b6001151581151514611ee2576040517f08c379a0000000000000000000000000000000000000000000000000000000008152600401808060200182810382526022815260200180612c816022913960400191505060405180910390fd5b8260008090508173ffffffffffffffffffffffffffffffffffffffff16600b60008473ffffffffffffffffffffffffffffffffffffffff1673ffffffffffffffffffffffffffffffffffffffff16815260200190815260200160002060020160009054906101000a900473ffffffffffffffffffffffffffffffffffffffff1673ffffffffffffffffffffffffffffffffffffffff161415611f8357600190505b6001151581151514611fe0576040517f08c379a0000000000000000000000000000000000000000000000000000000008152600401808060200182810382526022815260200180612c816022913960400191505060405180910390fd5b33600080905060008090505b600680549050811015612076578273ffffffffffffffffffffffffffffffffffffffff166006828154811061201d57fe5b9060005260206000200160009054906101000a900473ffffffffffffffffffffffffffffffffffffffff1673ffffffffffffffffffffffffffffffffffffffff16141561206957600191505b8080600101915050611fec565b5060001515811515146120f1576040517f08c379a00000000000000000000000000000000000000000000000000000000081526004018080602001828103825260178152602001807f596f75722076656869636c65206973205265766f6b656400000000000000000081525060200191505060405180910390fd5b33600080905042600b60008473ffffffffffffffffffffffffffffffffffffffff1673ffffffffffffffffffffffffffffffffffffffff16815260200190815260200160002060050154111561214657600190505b60001515811515146121c0576040517f08c379a000000000000000000000000000000000000000000000000000000000815260040180806020018281038252601c8152602001807f596f752061726520626c6f636b656420666f722031206d696e7574650000000081525060200191505060405180910390fd5b60011515600d60008c73ffffffffffffffffffffffffffffffffffffffff1673ffffffffffffffffffffffffffffffffffffffff16815260200190815260200160002060020160149054906101000a900460ff1615151461236157600160078b90806001815401808255809150509060018203906000526020600020016000909192909190916101000a81548173ffffffffffffffffffffffffffffffffffffffff021916908373ffffffffffffffffffffffffffffffffffffffff160217905550505033600d60008c73ffffffffffffffffffffffffffffffffffffffff1673ffffffffffffffffffffffffffffffffffffffff16815260200190815260200160002060020160006101000a81548173ffffffffffffffffffffffffffffffffffffffff021916908373ffffffffffffffffffffffffffffffffffffffff1602179055506001600d60008c73ffffffffffffffffffffffffffffffffffffffff1673ffffffffffffffffffffffffffffffffffffffff16815260200190815260200160002060020160146101000a81548160ff0219169083151502179055505b6001600d60008c73ffffffffffffffffffffffffffffffffffffffff1673ffffffffffffffffffffffffffffffffffffffff1681526020019081526020016000206000015401600d60008c73ffffffffffffffffffffffffffffffffffffffff1673ffffffffffffffffffffffffffffffffffffffff1681526020019081526020016000206000018190555033600a60008c73ffffffffffffffffffffffffffffffffffffffff1673ffffffffffffffffffffffffffffffffffffffff1681526020019081526020016000206000600d60008e73ffffffffffffffffffffffffffffffffffffffff1673ffffffffffffffffffffffffffffffffffffffff16815260200190815260200160002060000154815260200190815260200160002060000160006101000a81548173ffffffffffffffffffffffffffffffffffffffff021916908373ffffffffffffffffffffffffffffffffffffffff16021790555088600a60008c73ffffffffffffffffffffffffffffffffffffffff1673ffffffffffffffffffffffffffffffffffffffff1681526020019081526020016000206000600d60008e73ffffffffffffffffffffffffffffffffffffffff1673ffffffffffffffffffffffffffffffffffffffff16815260200190815260200160002060000154815260200190815260200160002060010160006101000a81548173ffffffffffffffffffffffffffffffffffffffff021916908373ffffffffffffffffffffffffffffffffffffffff16021790555060001515600860003373ffffffffffffffffffffffffffffffffffffffff1673ffffffffffffffffffffffffffffffffffffffff16815260200190815260200160002060008c73ffffffffffffffffffffffffffffffffffffffff1673ffffffffffffffffffffffffffffffffffffffff16815260200190815260200160002060008b73ffffffffffffffffffffffffffffffffffffffff1673ffffffffffffffffffffffffffffffffffffffff16815260200190815260200160002060000160009054906101000a900460ff1615151415612ada576001600960008c73ffffffffffffffffffffffffffffffffffffffff1673ffffffffffffffffffffffffffffffffffffffff16815260200190815260200160002060008b73ffffffffffffffffffffffffffffffffffffffff1673ffffffffffffffffffffffffffffffffffffffff1681526020019081526020016000206000015401600960008c73ffffffffffffffffffffffffffffffffffffffff1673ffffffffffffffffffffffffffffffffffffffff16815260200190815260200160002060008b73ffffffffffffffffffffffffffffffffffffffff1673ffffffffffffffffffffffffffffffffffffffff168152602001908152602001600020600001819055506001600860003373ffffffffffffffffffffffffffffffffffffffff1673ffffffffffffffffffffffffffffffffffffffff16815260200190815260200160002060008c73ffffffffffffffffffffffffffffffffffffffff1673ffffffffffffffffffffffffffffffffffffffff16815260200190815260200160002060008b73ffffffffffffffffffffffffffffffffffffffff1673ffffffffffffffffffffffffffffffffffffffff16815260200190815260200160002060000160006101000a81548160ff0219169083151502179055506000600860003373ffffffffffffffffffffffffffffffffffffffff1673ffffffffffffffffffffffffffffffffffffffff16815260200190815260200160002060008c73ffffffffffffffffffffffffffffffffffffffff1673ffffffffffffffffffffffffffffffffffffffff16815260200190815260200160002060008b73ffffffffffffffffffffffffffffffffffffffff1673ffffffffffffffffffffffffffffffffffffffff16815260200190815260200160002060000160016101000a81548160ff02191690831515021790555089600e6000600b60003373ffffffffffffffffffffffffffffffffffffffff1673ffffffffffffffffffffffffffffffffffffffff16815260200190815260200160002060040154815260200190815260200160002060000160006101000a81548173ffffffffffffffffffffffffffffffffffffffff021916908373ffffffffffffffffffffffffffffffffffffffff16021790555088600e6000600b60003373ffffffffffffffffffffffffffffffffffffffff1673ffffffffffffffffffffffffffffffffffffffff16815260200190815260200160002060040154815260200190815260200160002060010160006101000a81548173ffffffffffffffffffffffffffffffffffffffff021916908373ffffffffffffffffffffffffffffffffffffffff1602179055506001600b60003373ffffffffffffffffffffffffffffffffffffffff1673ffffffffffffffffffffffffffffffffffffffff1681526020019081526020016000206004015401600b60003373ffffffffffffffffffffffffffffffffffffffff1673ffffffffffffffffffffffffffffffffffffffff16815260200190815260200160002060040181905550612adf565b600080fd5b50505050505050505050565b6060600080600e6000600b60003373ffffffffffffffffffffffffffffffffffffffff1673ffffffffffffffffffffffffffffffffffffffff16815260200190815260200160002060030154815260200190815260200160002060000160009054906101000a900473ffffffffffffffffffffffffffffffffffffffff16600e6000600b60003373ffffffffffffffffffffffffffffffffffffffff1673ffffffffffffffffffffffffffffffffffffffff16815260200190815260200160002060030154815260200190815260200160002060010160009054906101000a900473ffffffffffffffffffffffffffffffffffffffff166040518060400160405280601981526020017f4c61746573742050656e64696e6720436c61696d20496e666f000000000000008152509190925092509250909192565b6000806000600d60008573ffffffffffffffffffffffffffffffffffffffff1673ffffffffffffffffffffffffffffffffffffffff16815260200190815260200160002060000154600254600154925092509250919390925056fe596f7520617265206e6f7420616e20496e74656c6c6967656e742056656869636c65596f7520617265206e6f7420746865205472616666696320417574686f72697479596f75206861766520676f742070656e64696e6720436c61696d732e2d20436865636b2050656e64696e6720436c61696d2044657461696c7320666f72206d6f726520696e666fa265627a7a72315820b23abb51c117bfe20943bab5294aea05df83e24c011dfc8ffff233d870aff42f64736f6c63430005100032",
  "source": "//pragma solidity ^0.4.21;\npragma solidity ^0.5.16;\n\ncontract TrustManagement {\n\n/** Vehicle Structure **/    \nstruct Vehicle_Register{\n        int TV;\n        uint256 credit_score;\n        address acno;\n        bool Revoked;\n        bool is_VEH_intelligent;\n        uint claimed;\n        uint claim_limit;\n        uint time;\n}\n\n/** RSU - Road Side Unit Structure **/\nstruct RSU{\n        address RSUId;\n        string name;\n        uint256 s_uid;\n        uint256 reg_v_id;\n}\n\n/** Personal Transaction Register specific\nto each particular Vehicle **/\nstruct Personal_Transaction_Register{\n        bool submitted;\n        bool isrewardReceived;\n}    \n\nstruct Score_Status_Register{\n        uint score;\n        bool verificationStatus;\n}\n\nstruct Session_Register{\n    uint count;\n    address registered_address;\n    address alarmer;\n    bool enrolled;    \n}\n\nstruct Vehicles_in_Session_Register{\n    address registered_address;\n    address doubty_vehicle;\n}\n\nstruct Claimable_Reward{\n    address session;\n    address suspected_vehicle;\n}\n\n/** Contract Deployer is the Traffic Authority **/\naddress TAaddress = msg.sender;\n\nuint pid = 0;\nuint256 oti = 0;\nuint256 TA_Round = 0;\n\n \naddress[] Vehicleaddress;\naddress[] RoadSideUnits;\naddress[] RevocationList;\naddress[] RegisteredSession;\n\nmapping(address => mapping(address => mapping(address => Personal_Transaction_Register))) PTR;\nmapping(address => mapping(address => Score_Status_Register)) SSR;\n\nmapping(address => mapping(uint256 => Vehicles_in_Session_Register)) VISR;\nmapping (address => Vehicle_Register) VR;\nmapping (address => RSU) rsu;\nmapping (address => Session_Register) SESSION_REGISTER;\nmapping (uint => Claimable_Reward) CR;\n\nmodifier OnlyRSU{\n    bool flag = false;\n    for(uint i=0;i<RoadSideUnits.length;i++){\n       if(msg.sender == RoadSideUnits[i]){\n           flag = true;\n       }\n    }\n    require(flag == true,\"You are not a RSU\");\n    _;\n}\nmodifier OnlyTA{\n    bool auth = false;\n    if(msg.sender == TAaddress){\n        auth = true;\n    }\n        require(auth == true,\"You are not the Traffic Authority\");\n        _;\n}\nmodifier NotRevoked(address _acno){\n    bool statusRevocation = false;\n    for(uint i=0;i<RevocationList.length;i++){\n            if(RevocationList[i] == _acno){\n                statusRevocation = true;\n            }\n        }\n        require(statusRevocation == false,\"Your vehicle is Revoked\");\n        _;\n}\nmodifier IntelligentVehicle(address _acno){\n    bool is_VEH_intelligent = false;\n        if(VR[_acno].acno == _acno){\n            is_VEH_intelligent = true;\n        }\n        require(is_VEH_intelligent == true,\"You are not an Intelligent Vehicle\");\n        _;\n}\n\nmodifier New_Event(){\n    bool flag = false;\n    if(TA_Round < RegisteredSession.length){\n        flag = true;\n    }\n    require(flag == true,\"No suspision reported\");\n    _;\n}\n\nmodifier IsBlocked(address suspected_vehicle){\n    bool flag = false;\n    if(VR[suspected_vehicle].time > now){\n        flag = true;\n    }\n    require(flag == false,\"You are blocked for 1 minute\");\n    _;\n}\n\n/** Vehicle Registration, Only performed by the TA **/\nfunction configureVEH(address _acno) OnlyTA public {\n        VR[_acno].acno = _acno;\n        VR[_acno].TV = 10;\n        VR[_acno].credit_score = 100;\n        VR[_acno].Revoked = false;\n        VR[_acno].claim_limit = 0;\n        VR[_acno].claimed = 0;\n        VR[_acno].time = now;\n}\n\nfunction reportMisbehaviour(address session, address suspected_vehicle) IntelligentVehicle(msg.sender) IntelligentVehicle(suspected_vehicle) NotRevoked(msg.sender) IsBlocked(msg.sender) public  {\n        if(SESSION_REGISTER[session].enrolled != true){\n            RegisteredSession.push(session) -1;\n            SESSION_REGISTER[session].alarmer = msg.sender;\n            SESSION_REGISTER[session].enrolled = true;\n        }\n        \n        SESSION_REGISTER[session].count = SESSION_REGISTER[session].count + 1;\n        VISR[session][SESSION_REGISTER[session].count].registered_address = msg.sender;\n        VISR[session][SESSION_REGISTER[session].count].doubty_vehicle = suspected_vehicle;\n    \n        if(PTR[msg.sender][session][suspected_vehicle].submitted == false){\n            SSR[session][suspected_vehicle].score = SSR[session][suspected_vehicle].score + 1;\n            PTR[msg.sender][session][suspected_vehicle].submitted = true;\n            PTR[msg.sender][session][suspected_vehicle].isrewardReceived = false;\n            CR[VR[msg.sender].claim_limit].session = session;\n            CR[VR[msg.sender].claim_limit].suspected_vehicle = suspected_vehicle;\n            VR[msg.sender].claim_limit = VR[msg.sender].claim_limit + 1;\n        }else{\n            revert();\n        }\n}\n\nfunction TACheck() OnlyTA New_Event()  public {\n    address session = RegisteredSession[TA_Round];\n    for(uint i=1;i<=SESSION_REGISTER[session].count;i++){\n        address suspected_vehicle = VISR[session][i].doubty_vehicle;\n        oti = oti + 1;\n        if(SSR[session][suspected_vehicle].score > SESSION_REGISTER[session].count/2){\n           pid = pid + 1;\n            VR[suspected_vehicle].TV = VR[suspected_vehicle].TV - 1;\n            VR[suspected_vehicle].time = VR[suspected_vehicle].time + 1 minutes;\n                if(VR[suspected_vehicle].TV < 0 && VR[suspected_vehicle].Revoked == false){\n                    RevocationList.push(suspected_vehicle) - 1;\n                    VR[suspected_vehicle].Revoked = true;\n                    \n                }\n            SSR[session][suspected_vehicle].verificationStatus = true;\n        }\n    }\n     TA_Round = TA_Round + 1;\n}\n\nfunction claimReward() public {\n    \n    address session = CR[VR[msg.sender].claimed].session;\n    address suspected_vehicle = CR[VR[msg.sender].claimed].suspected_vehicle;\n    \n    if(PTR[msg.sender][session][suspected_vehicle].isrewardReceived == false){\n        if(SSR[session][suspected_vehicle].verificationStatus == true){\n            if(SSR[session][suspected_vehicle].verificationStatus == PTR[msg.sender][session][suspected_vehicle].submitted){\n                VR[msg.sender].credit_score = VR[msg.sender].credit_score + 5;\n                VR[msg.sender].claimed = VR[msg.sender].claimed + 1;\n                if(SESSION_REGISTER[session].alarmer == msg.sender){\n                    VR[msg.sender].credit_score = VR[msg.sender].credit_score + 2;\n                }\n                PTR[msg.sender][session][suspected_vehicle].isrewardReceived = true;\n            }\n        }\n    }else{\n        revert();\n    }\n}\n\nfunction releasePayment(address payable acno) OnlyTA public payable {\n             uint256 vehicle_credit = VR[acno].credit_score;\n             uint256 amount = vehicle_credit * 2;\n             assert(msg.value == amount);\n             if(msg.value != amount){\n               revert();\n              }         \n              VR[acno].credit_score = 0;\n              acno.transfer(msg.value);\n}\n\n\nfunction RevokedVehicles() view public returns(address[] memory){\n        return RevocationList;\n}\nfunction dummyCheck(address session) view public returns (uint,uint,uint){\n    return (SESSION_REGISTER[session].count,oti,pid);\n}\n\nfunction checkmyTVC() view public returns(int,uint){\n    return(VR[msg.sender].TV,VR[msg.sender].credit_score);\n}\n\nfunction CheckmyClaims() view public returns(string memory){\n    if(VR[msg.sender].claimed == VR[msg.sender].claim_limit){\n        return(\"No more pending Claims\");\n    }\n\n    if(SSR[CR[VR[msg.sender].claimed].session][CR[VR[msg.sender].claimed].suspected_vehicle].verificationStatus != true){\n        return(\"Claim not yet verified by TA\");\n    }\n     else{\n         return(\"You have got pending Claims.- Check Pending Claim Details for more info\");\n     }\n    \n}\n\nfunction MoreInfoOnClaims() view public returns(string memory,address,address){\n    return(\"Latest Pending Claim Info\",CR[VR[msg.sender].claimed].session,CR[VR[msg.sender].claimed].suspected_vehicle);\n}\n\nfunction Reevaluation(address session,address suspected_vehicle) view public returns (uint, uint){\n    return(SSR[session][suspected_vehicle].score,SESSION_REGISTER[session].count/2);\n}\n\nfunction checkengeth() view public returns(uint){\n    return RegisteredSession.length;\n}\nfunction checkScore(address session,address suspected_vehicle) view public returns (uint){\n    return (SSR[session][suspected_vehicle].score + 1);\n}\n\nfunction TAC() view public returns(address){\n    return (RegisteredSession[0]);\n}\n\n}\n\n\n",
  "sourcePath": "/home/srs/Trust-Management-ITS/contracts/trust-management.sol",
  "compiler": {
    "name": "solc",
    "version": "0.5.16+commit.9c3226ce.Emscripten.clang"
  },
  "schemaVersion": "3.4.1",
  "updatedAt": "2021-05-29T15:34:37.855Z",
  "devdoc": {
    "methods": {}
  },
  "userdoc": {
    "methods": {
      "configureVEH(address)": {
        "notice": "Vehicle Registration, Only performed by the TA *"
      }
    }
  }
}